:100000000C94BA000C94E2000C94E2000C94E20010
:100010000C94E2000C94E2000C94E2000C94E200D8
:100020000C94E2000C94E2000C94E2000C94E200C8
:100030000C94E2000C94E2000C94E2000C94E200B8
:100040000C940E0E0C94E2000C947E0E0C94580E40
:100050000C94E2000C94E2000C94E2000C94E20098
:100060000C94EF0C0C94E200496E76616C6964208C
:10007000616E696D6174696F6E207265717565730B
:10008000746564005374617274757020636F6D7071
:100090006C6574653B20656E746572696E67206D72
:1000A00061696E206C6F6F70005374617274696E59
:1000B000672075702074686520736572766F206D97
:1000C0006F746F7273004572726F723A20556E6171
:1000D000626C6520746F20616C6C6F636174652065
:1000E0006D656D6F727920666F7220736572766FC1
:1000F00020616E696D6174696F6E207175657565DB
:10010000002D2D2D2057616C6C2D4520436F6E7492
:10011000726F6C20536B65746368202D2D2D000069
:1001200000000800020100000304070000000000B6
:1001300000000000000000250028002B0000000047
:1001400000240027002A0004040404040404040218
:100150000202020202030303030303010204081064
:100160002040800102040810200102040810200031
:10017000B00E9C1611241FBECFEFD8E0DEBFCDBF5E
:1001800012E0A0E0B1E0E0E9F6E302C005900D92D4
:10019000A838B107D9F725E0A8E8B2E001C01D9260
:1001A000A63CB207E1F710E0C9EBD0E004C021970C
:1001B000FE010E94D217C83BD107C9F70E94130F56
:1001C0000C943B1B0C94000090E0FC01E55AFE4FA0
:1001D0002491895B9E4FFC018491882399F090E0E3
:1001E000880F991FFC01E35CFE4FA591B491FC01BF
:1001F000ED5CFE4F859194918FB7F894EC91E22BD2
:10020000EC938FBF0895CF93DF93CDB7DEB72997D7
:100210000FB6F894DEBF0FBECDBF4091A805509138
:10022000A9051416150674F029E0FC0111922A950F
:10023000E9F729960FB6F894DEBF0FBECDBFDF9168
:10024000CF9108952091A4053091A50569E0629FA2
:10025000D001639FB00D1124E091AD05F091AE0582
:10026000EA0FFB1FDE01119601900D926A95E1F7EE
:100270002F5F3F4F3093A5052093A40541505109AE
:100280005093A9054093A8054091AA055091AB054C
:100290002417350734F0241B350B3093A505209324
:1002A000A40529E0FE013196DC0101900D922A950A
:1002B000E1F7BFCFFC012091A8053091A9058091FD
:1002C000AA059091AB0528173907A4F5A091AD05B3
:1002D000B091AE052091A6053091A705C901019600
:1002E0009093A7058093A60599E0929FA001939F04
:1002F000500D1124A40FB51F01900D929A95E1F7AE
:100300008091A8059091A90501969093A9058093E5
:10031000A8058091A6059091A7052091AA05309186
:10032000AB058217930734F0821B930B9093A705BC
:100330008093A60508952091FC02260F3327331FD2
:1003400021323105ECF420916903FC0190E080E05A
:10035000243069F082E00895A091FC022191AC0163
:1003600046525D4FA40FB52FB11D2C9301968617F1
:1003700098F38091FC02680F6093FC0280E008957E
:1003800081E00895089508950895E09122038091F1
:100390002103E81730F4F0E0ED5DFC4F808190E040
:1003A00008958FEF9FEF089590912203809121038C
:1003B0002FEF3FEF981748F4E92FF0E0ED5DFC4F89
:1003C000208130E09F5F90932203C90108958091BE
:1003D000210390912203891B990B0895CF92DF92FC
:1003E000EF92FF920F931F93CF93DF937C01CB018A
:1003F0008A0120916F03222389F0EB016B01C40E67
:10040000D51ECC15DD0569F06991D701ED91FC9100
:100410000190F081E02DC7010995F3CF642F0E9470
:100420009B01C801DF91CF911F910F91FF90EF9039
:10043000DF90CF900895CF93DF931F92CDB7DEB7B3
:10044000698320916F032223F9F0209192032032D7
:1004500058F021E030E0FC013383228390E080E01B
:100460000F90DF91CF91089580917003E82FF0E015
:10047000EF58FC4F998190838F5F80937003809336
:10048000920381E090E0ECCF61E0CE0101960E9402
:100490009B01F7CF90E0FC01E15EFE4F2491FC014F
:1004A000E55AFE4F3491FC01E95BFE4FE491EE23E7
:1004B000C9F0222339F0233001F1A8F4213019F1D9
:1004C000223029F1F0E0EE0FFF1FED5CFE4FA59109
:1004D000B4918FB7F894EC91611126C030953E230A
:1004E0003C938FBF08952730A9F02830C9F02430FD
:1004F00049F7809180008F7D03C0809180008F77C5
:1005000080938000DFCF84B58F7784BDDBCF84B547
:100510008F7DFBCF8091B0008F778093B000D2CFDA
:100520008091B0008F7DF9CF3E2BDACFCF93DF9350
:10053000EC01862F688349832A831D820E94E40090
:100540008A810E94E40061E088810E944A021B8245
:100550008D81882349F061E08A810E944A0281E00E
:100560008C83DF91CF91089560E08A810E944A02D6
:100570001C82F7CF1092690381E080936803109288
:10058000430361E082E10E944A0261E083E10E944C
:100590004A02E9EBF0E080818E7F808380818D7F4D
:1005A000808388E48093B80085E48093BC0008953C
:1005B000CF93DF9391E09093D9028823B9F0C09153
:1005C000B800D091BA008091BC008A7B8093BC00B7
:1005D00060E082E10E944A0260E083E10E944A02F8
:1005E0000E94BA02D093BA00C093B800DF91CF91B5
:1005F00008953FB7F8948091D5029091D602A091CA
:10060000D702B091D80226B5A89B05C02F3F19F09C
:100610000196A11DB11D3FBFBA2FA92F982F882782
:10062000BC01CD01620F711D811D911D42E0660F5D
:10063000771F881F991F4A95D1F708958F929F922F
:10064000AF92BF92CF92DF92EF92FF920F931F93E0
:10065000CF93DF93D0919203D13208F0D7C0182FF7
:10066000C09191030E94F9026B017C0180916903A2
:1006700081116BC082E080936903109368038FEF50
:100680008093670310926603D0936503A1E7B3E0FC
:10069000E5E4F3E080E0D81391C010924403809128
:1006A0004403CC0FC82BC093440380914303813093
:1006B00009F088C0109243030E94F9026B017C018B
:1006C000809144038093BB0080916B0390916C03F5
:1006D000A0916D03B0916E03892B8A2B8B2BA1F017
:1006E0000E94F90200916B0310916C0320916D033D
:1006F00030916E036C197D098E099F090617170743
:100700002807390708F442C08091BC0083FDD8CF88
:1007100085EC8093BC000E94F9026B017C01809102
:100720006903823009F450C0809167038F3F09F458
:100730006FC080916703803209F46CC080916703B9
:10074000803309F469C084E026C080916B039091E6
:100750006C03A0916D03B0916E03892B8A2B8B2BB8
:1007600009F484CF0E94F90280906B0390906C038F
:10077000A0906D03B0906E036C197D098E099F09DE
:1007800086169706A806B90608F070CF80916A030E
:100790000E94D80285E0109270031092920310928A
:1007A0006F03DF91CF911F910F91FF90EF90DF903A
:1007B000CF90BF90AF909F908F9008959D9191930F
:1007C0008F5F69CF85EEA5CF80916B0390916C030D
:1007D000A0916D03B0916E03892B8A2B8B2B09F4AA
:1007E0009ECF0E94F90200916B0310916C0320913F
:1007F0006D0330916E036C197D098E099F090617F0
:1008000017072807390708F08ACFC0CF81E0C3CF88
:1008100080E0C1CF82E0BFCF83E0BDCF1F93CF93F5
:10082000DF93162FCBEBD5E0A981BA81988121E027
:1008300020936F0390939103109270031092920390
:10084000ED91FC9111970190F081E02D682FCD0181
:10085000099589819A81DC01ED91FC910190F081EB
:10086000E02D612F099581E0DF91CF911F910C94CC
:100870001E038F929F92AF92BF92CF92DF92EF9220
:10088000FF924B015C010E94F9026B017C010E9406
:10089000F9026C197D098E099F09683E7340810534
:1008A0009105A8F321E0821A9108A108B10888EE09
:1008B000C80E83E0D81EE11CF11C81149104A10430
:1008C000B10429F7FF90EF90DF90CF90BF90AF90E9
:1008D0009F908F9008952FB7F8946091D1027091F6
:1008E000D2028091D3029091D4022FBF0895AF928B
:1008F000BF92CF92DF92EF92FF920F931F93CF930D
:10090000DF936C017B018B01040F151FEB015E016E
:10091000AE18BF08C017D10759F06991D601ED9103
:10092000FC910190F081E02DC6010995892B79F7A2
:10093000C501DF91CF911F910F91FF90EF90DF9054
:10094000CF90BF90AF90089590E080E00895FC01B3
:10095000538D448D252F30E0842F90E0821B930B24
:10096000541710F0CF96089501970895FC01918DCA
:10097000828D981761F0A28DAE0FBF2FB11D5D96CD
:100980008C91928D9F5F9F73928F90E008958FEF6F
:100990009FEF0895FC01918D828D981731F0828D23
:1009A000E80FF11D858D90E008958FEF9FEF08957A
:1009B000FC01918D228D892F90E0805C9F4F821BDE
:1009C00091098F739927089583E993E00E94D804D1
:1009D00021E0892B09F420E0822F089580E090E047
:1009E000892B29F00E94E40481110C9400000895E1
:1009F000FC01A48DA80FB92FB11DA35ABF4F2C9194
:100A0000848D90E001968F739927848FA689B7898A
:100A10002C93A089B1898C91837080648C93938D81
:100A2000848D981306C00288F389E02D80818F7D24
:100A300080830895EF92FF920F931F93CF93DF93DC
:100A4000EC0181E0888F9B8D8C8D98131AC0E8890A
:100A5000F989808185FF15C09FB7F894EE89FF89D9
:100A60006083E889F98980818370806480839FBF77
:100A700081E090E0DF91CF911F910F91FF90EF9077
:100A80000895F62E0B8D10E00F5F1F4F0F73112787
:100A9000E02E8C8D8E110CC00FB607FCFACFE889C2
:100AA000F989808185FFF5CFCE010E94F804F1CF4E
:100AB000EB8DEC0FFD2FF11DE35AFF4FF0829FB736
:100AC000F8940B8FEA89FB8980818062CFCFCF9326
:100AD000DF93EC01888D8823B9F0AA89BB89E88966
:100AE000F9898C9185FD03C0808186FD0DC00FB60C
:100AF00007FCF7CF8C9185FFF2CF808185FFEDCF8A
:100B0000CE010E94F804E9CFDF91CF910895DC0176
:100B1000ED91FC910190F081E02D0994EF92FF920C
:100B20000F931F93CF93DF93E62E072FF42E152FED
:100B3000CBEBD5E0A981BA81988121E020936F03A6
:100B400090939103109270031092920394E0899F06
:100B5000B00111246A5F7F4FED91FC9111970190D4
:100B6000F081E02DCD0109956E2D702F89819A813C
:100B70000E948705602F70E089819A810E94870515
:100B80006F2D712F89819A810E948705612F70E0F6
:100B900089819A810E94870581E0DF91CF911F9121
:100BA0000F91FF90EF900C941E030F931F93CF9320
:100BB000DF938C01EB016F3F710509F0BCF46130EC
:100BC0007F4FC4F11C161D069CF02097A9F5F80173
:100BD0008581882301F1848181111DC061E08281BA
:100BE0000E944A0281E0F801848315C0CFEFD0E073
:100BF000F8018381882359F361E080810E944A02D1
:100C0000F80113828481882331F060E082810E94A0
:100C10004A02F8011482F8011181812F0E94E40038
:100C20002097B1F460E0812FDF91CF911F910F9158
:100C30000C944A02C1E0DFEFF80183818111C7CF34
:100C400060E080810E944A0281E0F8018383DACF6C
:100C5000D7FF03C0D195C195D109CF3FD10511F47C
:100C600061E0E1CFE12FF0E0E15EFE4FE491E3309F
:100C700039F140F4E130B1F0E230E9F0C038D105AB
:100C80007CF7D0CFE73031F1E83061F1E430B1F7F3
:100C900080918000806280938000D0938B00C0930D
:100CA0008A0004C084B5806884BDC7BDDF91CF9140
:100CB0001F910F91089584B5806284BDC8BDF6CFA1
:100CC00080918000806880938000D0938900C093D9
:100CD0008800ECCF8091B00080688093B000C09312
:100CE000B300E4CF8091B00080628093B000C093E5
:100CF000B400DCCF8F929F92AF92BF92CF92DF92DF
:100D0000EF92FF920F931F93CF936B017C0120E032
:100D100030E040E85FE30E94451887FDDEC020E038
:100D200030EC4AE555E4C701B6010E94A419181633
:100D30003CF4C12C30ECD32E3AE5E32E35E4F32E0F
:100D40006091BE057091BF058091C0059091C1056D
:100D50000E94F2184B015C0120E030E040E855E4CD
:100D6000C701B6010E94A9199B01AC01C501B401DC
:100D70000E944A1820E030E040E05FE30E94D9176B
:100D800020E030E040E85FE30E94D8176B017C016F
:100D900020E030E040E450E40E94451887FDA4C004
:100DA00020E030E04FE753E4C701B6010E94A419E8
:100DB000181634F4C12CD12C9FE7E92E93E4F92EB8
:100DC000C701B6010E94C318F62E8091BC05909110
:100DD000BD052091BB0531E030936F032093910353
:100DE0001092700310929203DC01ED91FC9101903E
:100DF000F081E02D60E0099581E00E941E03C09122
:100E0000BB050E94F9024B015C01809169038111CD
:100E100071C081E080936903809368039FEF909392
:100E200067031092660310926503809344038091D8
:100E30004403CC0FC82BC0934403809143038130FB
:100E400009F0B2C0109243030E94F9024B015C0109
:100E5000809144038093BB0080916B0390916C035D
:100E6000A0916D03B0916E03892B8A2B8B2BA1F07F
:100E70000E94F90200916B0310916C0320916D03A5
:100E800030916E03681979098A099B0906171707BB
:100E90002807390708F44FC08091BC0083FDD8CFE4
:100EA00085EC8093BC000E94F9024B015C018091AB
:100EB0006903813009F47AC080916603811198C07A
:100EC00080916603E5E4F3E0A3E2B3E090E09817D5
:100ED000B9F121912D939F5FFACFC12CD12C20E83D
:100EE000E22E2FE3F22E2CCFC12CD12C80E4E82E61
:100EF000FE2C66CF80916B0390916C03A0916D03E3
:100F0000B0916E03892B8A2B8B2B09F47ECF0E9424
:100F1000F90200916B0310916C0320916D033091E5
:100F20006E03681979098A099B09061717072807AC
:100F3000390708F06ACF80916A030E94D80280E0E6
:100F400010922203809321038091BC059091BD05EE
:100F5000DC01ED91FC910284F385E02D0995C82F09
:100F6000682F6F76606180E00E940E046F2D8EEF17
:100F70000E940E046C2F80E00E940E0465E070E079
:100F800080E090E00E9439046C2F606A80E0CF918D
:100F90001F910F91FF90EF90DF90CF90BF90AF9097
:100FA0009F908F900C940E0485EE7BCF80916B0305
:100FB00090916C03A0916D03B0916E03892B8A2BE5
:100FC0008B2B09F474CF0E94F90200916B031091EE
:100FD0006C0320916D0330916E03681979098A09B9
:100FE0009B09061717072807390708F060CFA3CF1A
:100FF00081E068CF8F929F92AF92BF920F931F9321
:10100000CF93DF93CDB7DEB7A1970FB6F894DEBFCD
:101010000FBECDBF19A2423008F44AE08E010F5D29
:101020001F4F842E912CB12CA12CA50194010E945C
:10103000A117E62FB901CA01EA3044F5E05DD801F5
:10104000EE938D01232B242B252B79F790E080E064
:10105000109769F0FD0101900020E9F73197AF0189
:101060004A1B5B0BBD0183E993E00E947704A196C4
:101070000FB6F894DEBF0FBECDBFDF91CF911F91A9
:101080000F91BF90AF909F908F900895E95CD7CF5C
:1010900042E050E065E872E083E993E00C94770465
:1010A0000F931F93CF93DF938C01D0E0C0E0F80142
:1010B000EC0FFD1F6491662341F083E993E00E94E9
:1010C0001A05892B11F02196F2CF0E9448088C0F47
:1010D0009D1FDF91CF911F910F910895CF93DF93C3
:1010E000CDB7DEB729970FB6F894DEBF0FBECDBFE0
:1010F0008130910559F08230910509F485C0892B22
:1011000009F0F8C089E0E2E5F1E06BC089E0EBE5C9
:10111000F1E0DE01119601900D928A95E1F7CE0182
:1011200001960E945A0189E0E4E6F1E0DE011196A1
:1011300001900D928A95E1F7CE0101960E945A0125
:1011400089E0EDE6F1E0DE01119601900D928A95BD
:10115000E1F7CE0101960E945A0189E0E6E7F1E04D
:10116000DE01119601900D928A95E1F7CE0101966C
:101170000E945A0189E0EFE7F1E0DE01119601904B
:101180000D928A95E1F7CE0101960E945A0189E0FD
:10119000E8E8F1E0DE01119601900D928A95E1F701
:1011A000CE0101960E945A0189E0E1E9F1E0DE01F9
:1011B000119601900D928A95E1F7CE0101960E9459
:1011C0005A0189E0EAE9F1E0DE01119601900D9201
:1011D0008A95E1F7CE0101960E945A0189E0E3EA7F
:1011E000F1E0DE01119601900D928A95E1F7CE01B2
:1011F00001960E945A0129960FB6F894DEBF0FBEE1
:10120000CDBFDF91CF91089589E0ECEAF1E0DE01F6
:10121000119601900D928A95E1F7CE0101960E94F8
:101220005A0189E0E5EBF1E0DE01119601900D92A3
:101230008A95E1F7CE0101960E945A0189E0EEEB12
:10124000F1E0DE01119601900D928A95E1F7CE0151
:1012500001960E945A0189E0E7ECF1E0DE01119667
:1012600001900D928A95E1F7CE0101960E945A01F4
:1012700089E0E0EDF1E0DE01119601900D928A9592
:10128000E1F7CE0101960E945A0189E0E9EDF1E013
:10129000DE01119601900D928A95E1F7CE0101963B
:1012A0000E945A0189E0E2EEF1E0DE011196019020
:1012B0000D928A95E1F7CE0101960E945A0189E0CC
:1012C000EBEEF1E0DE01119601900D928A95E1F7C7
:1012D000CE0101960E945A0189E0E4EFF1E0DE01BF
:1012E000119601900D928A95E1F7CE0101960E9428
:1012F0005A0108CF88E690E00E9450087CCF85ED27
:101300008093BC0080916B0390916C03A0916D035E
:10131000B0916E030796A11DB11D23E0B695A79568
:10132000979587952A95D1F72091BC0024FD03C09D
:1013300010926903089540916B0350916C03609182
:101340006D0370916E03452B462B472B69F3009775
:10135000A105B10541F02AE22A95F1F700C00197F5
:10136000A109B109E1CF80916A030C94D802CF9210
:10137000DF92EF92FF92CF93DF9389E892E00E9491
:101380004917EC016091880283E993E00E941A05F5
:101390006E010D2E000CEE08FF084AE0C701B601F1
:1013A000F7FE0DC06DE283E993E00E941A056627FF
:1013B0007727CB016C197D098E099F094AE00E94AD
:1013C000FA070E944808809188028835E1F4CC59D8
:1013D000DF4FC93CD10580F4C701B6010E94F41863
:1013E00023E333E343E250E40E94A9190E94BC18AE
:1013F0007093C1026093C002DF91CF91FF90EF9094
:10140000DF90CF9008958935B1F4CC59DF4FC93CB6
:10141000D10590F7C701B6010E94F41823E333E326
:1014200043E250E40E94A9190E94BC187093C302C1
:101430006093C202E1CF833559F4CE018C599F4F9E
:10144000893C9105C8F6D093BF02C093BE02D4CFA9
:101450008F3441F4CB3FD10578F6D0939902C093F5
:101460009802CACF813449F4CE01DF91CF91FF9029
:10147000EF90DF90CF900C946E088D3431F420976C
:1014800009F0A6C210928F02B7CF8C34C9F5C536C9
:10149000D10508F0B1CF10928F028091A6059091EE
:1014A000A7059093A5058093A4051092A905109215
:1014B000A805C701B6010E94F4182AE037ED43E2FF
:1014C0005CE30E94A91920E030E04DE453EC0E9457
:1014D000A91920E030E04AEA53E40E94D9170E949B
:1014E000BC18072E000C880B990B0E94F41860930F
:1014F00038017093390180933A0190933B017CCF7E
:101500008235C9F5C536D10508F076CF10928F0225
:101510008091A6059091A7059093A5058093A405B9
:101520001092A9051092A805C701B6010E94F418EF
:101530002AE037ED43E25CE30E94A91920E030E0A5
:1015400042E553E40E94A91920E030E046E153E46B
:101550000E94D9170E94BC18072E000C880B990B0B
:101560000E94F41860933C0170933D0180933E010A
:1015700090933F0141CF8234C9F5C536D10508F0BB
:101580003BCF10928F028091A6059091A705909372
:10159000A5058093A4051092A9051092A805C7017E
:1015A000B6010E94F4182AE037ED43E25CE30E94A2
:1015B000A91920E030E04EE353E40E94A91920E08D
:1015C00030E040EF52E40E94D9170E94BC18072E69
:1015D000000C880B990B0E94F41860932C017093F7
:1015E0002D0180932E0190932F0106CF8435C9F5EC
:1015F000C536D10508F000CF10928F028091A60564
:101600009091A7059093A5058093A4051092A90534
:101610001092A805C701B6010E94F4182AE037ED20
:1016200043E25CE30E94A91920E030E041EB53EC77
:101630000E94A91920E030E045E054E40E94D91747
:101640000E94BC18072E000C880B990B0E94F418FE
:10165000609328017093290180932A0190932B01B4
:10166000CBCE8734C9F5C536D10508F0C5CE10926A
:101670008F028091A6059091A7059093A505809370
:10168000A4051092A9051092A805C701B6010E94F1
:10169000F4182AE037ED43E25CE30E94A91920E048
:1016A00030E041E953EC0E94A91920E030E04DEC14
:1016B00053E40E94D9170E94BC18072E000C880B17
:1016C000990B0E94F4186093240170932501809374
:1016D00026019093270190CE8534C9F5C536D105F2
:1016E00008F08ACE10928F028091A6059091A705EE
:1016F0009093A5058093A4051092A9051092A805C2
:10170000C701B6010E94F4182AE037ED43E25CE31A
:101710000E94A91920E030E049E453E40E94A9198D
:1017200020E030E04BE853E40E94D9170E94BC1837
:10173000072E000C880B990B0E94F418609334015B
:1017400070933501809336019093370155CE8535DE
:10175000C9F5C536D10508F04FCE10928F028091A1
:10176000A6059091A7059093A5058093A4051092D6
:10177000A9051092A805C701B6010E94F4182AE035
:1017800037ED43E25CE30E94A91920E030E042E437
:1017900053EC0E94A91920E030E848EE53E40E947F
:1017A000D9170E94BC18072E000C880B990B0E94B9
:1017B000F41860933001709331018093320190935B
:1017C00033011ACE873739F48FEF90E09093C3023C
:1017D0008093C20206C08137A9F41092C30210920E
:1017E000C2021092C1021092C00280E090E8A4E808
:1017F000B3E48093240190932501A0932601B09334
:101800002701FACD833719F481E09FEFDFCF8136CE
:1018100079F41092C3021092C20281E09FEF90937C
:10182000C1028093C00280E090E0ADECB3E4E1CF70
:10183000843679F41092C3021092C2028FEF90E0C6
:101840009093C1028093C00280E090E0A0EFB2E4E8
:10185000D0CF8A36C9F480E090E0ABE8B3E480935F
:10186000340190933501A0933601B093370180E0A5
:1018700090E8A7E8B3E48093300190933101A093FE
:101880003201B0933301B8CD8C3689F480E090E812
:10189000AFEEB3E48093340190933501A093360109
:1018A000B093370180E090E8A8EEB3E4E4CF893646
:1018B00029F480E090E0ABE8B3E4ECCF8B3689F418
:1018C00080E090E0A3EBB3E4809334019093350182
:1018D000A0933601B093370180E090E8A1ECB3E427
:1018E000CACF8636C9F480E090E0A5E0B4E48093E6
:1018F000280190932901A0932A01B0932B0180E045
:1019000090E0A7E5B3E480932C0190932D01A09380
:101910002E01B0932F0170CD873689F480E090E0DE
:10192000A2E3B3E48093280190932901A0932A01B4
:10193000B0932B0180E090E0A0EFB2E4E4CF8836D2
:1019400029F480E090E0A5E0B4E4ECCF8236C9F45D
:1019500080E090E0AAEAB3E48093380190933901E3
:10196000A0933A01B0933B0180E090E0A4EBB3E494
:1019700080933C0190933D01A0933E01B0933F01C1
:101980003BCD8E3689F480E090E0ADE6B3E4809301
:10199000380190933901A0933A01B0933B0180E064
:1019A00090E0AFE7B3E4E4CF8D3609F025CD80E0D9
:1019B00090E0A7E0B3E48093380190933901A093BD
:1019C0003A01B0933B0180E090E0A6E1B3E4D0CFD0
:1019D000219709F011CD81E080938F020DCD1F92E8
:1019E0000F920FB60F9211242F933F934F935F9353
:1019F0006F937F938F939F93AF93BF93EF93FF93D7
:101A00008091B900887F803609F44AC0F0F58832A9
:101A100009F4A7C018F5803109F49BC0B8F48823F5
:101A200009F4F9C0883009F494C0FF91EF91BF9197
:101A3000AF919F918F917F916F915F914F913F9166
:101A40002F910F900FBE0F901F901895883109F4B9
:101A500088C0803251F78093670314C0803409F442
:101A60009DC040F48033B9F38833F9F6809367035F
:101A700085ECB0C0803509F485C0883509F496C07E
:101A8000883499F60E947F09D0CF883909F48CC038
:101A900038F5883729F050F4883611F0803729F668
:101AA00083E0809369031092200357C0883809F4BB
:101AB0007BC0803919F0803809F0B7CF80912003BE
:101AC000803208F071C0E091200381E08E0F809396
:101AD00020038091BB00F0E0E050FD4F80833DC0CB
:101AE000803B39F0E0F4803A09F479C0883A09F093
:101AF0009CCF84E0809369031092FD021092FC0257
:101B0000E091FA02F091FB0209958091FC028111AB
:101B10000FC081E08093FC021092DA0209C0803C81
:101B200009F4A6CF883C09F4A3CF883B09F07DCF08
:101B3000E091FD0281E08E0F8093FD02F0E0E6521D
:101B4000FD4F80818093BB009091FD028091FC024B
:101B500029C0809144038093BB0085EC8093BC0036
:101B600064CF9091660380916503981758F5E091D2
:101B7000660381E08E0F80936603F0E0EB5BFC4F21
:101B80008081E9CFE091660381E08E0F8093660348
:101B90008091BB00F0E0EB5BFC4F8083909166038B
:101BA000809165039817C8F285E8D8CFE091660365
:101BB00081E08E0F809366038091BB00F0E0EB5BC9
:101BC000FC4F80838091680381115CCF81E080931A
:101BD000430384EA8093BC001092690326CF85EC0E
:101BE0008093BC001092690380912003803230F40E
:101BF000E0912003F0E0E050FD4F1082609120035F
:101C000070E0E091FE02F091FF0280E093E0099520
:101C1000109220030ACF1092670334CF1F920F92C5
:101C20000FB60F9211242F933F938F939F93AF93EF
:101C3000BF938091D1029091D202A091D302B09132
:101C4000D4023091D00223E0230F2D3758F50196AE
:101C5000A11DB11D2093D0028093D1029093D20296
:101C6000A093D302B093D4028091D5029091D60272
:101C7000A091D702B091D8020196A11DB11D809309
:101C8000D5029093D602A093D702B093D802BF9109
:101C9000AF919F918F913F912F910F900FBE0F9019
:101CA0001F90189526E8230F0296A11DB11DD2CFD3
:101CB0001F920F920FB60F9211242F933F934F93C1
:101CC0005F936F937F938F939F93AF93BF93EF93A4
:101CD000FF9383E993E00E94F804FF91EF91BF9195
:101CE000AF919F918F917F916F915F914F913F91B4
:101CF0002F910F900FBE0F901F9018951F920F926B
:101D00000FB60F9211242F938F939F93EF93FF930E
:101D1000E091A303F091A4038081E091A903F091E5
:101D2000AA0382FD1BC090818091AC038F5F8F73EB
:101D30002091AD03821741F0E091AC03F0E0ED5645
:101D4000FC4F958F8093AC03FF91EF919F918F9102
:101D50002F910F900FBE0F901F9018958081F4CF98
:101D6000A0E3B4E013961C921E92129748EE53E043
:101D700060E070E014964D935D936D937C9317979C
:101D800085E692E011969C938E93E3E9F3E013824B
:101D90001282448355836683778387E792E0918339
:101DA000808385EC90E09587848784EC90E097872A
:101DB000868780EC90E0918B808B81EC90E0938B18
:101DC000828B82EC90E0958B848B86EC90E0978BF5
:101DD000868B118E128E138E148EEBEBF5E080E461
:101DE0008083B283A18329E043E06CE085EB95E03A
:101DF0000E94960228E04BE06DE08FEA95E00E9499
:101E00009602E4EAF5E011821082138212821582B2
:101E1000148288E290E0978386838CE394E0928733
:101E2000818710860895CF93DF93CDB7DEB7E9970A
:101E30000FB6F894DEBF0FBECDBF789484B5826034
:101E400084BD84B5816084BD85B5826085BD85B55E
:101E5000816085BD80916E00816080936E001092DC
:101E60008100809181008260809381008091810057
:101E700081608093810080918000816080938000E8
:101E80008091B10084608093B1008091B000816046
:101E90008093B00080917A00846080937A00809172
:101EA0007A00826080937A0080917A0081608093CA
:101EB0007A0080917A00806880937A001092C10045
:101EC0008AE00E94E40061E08AE00E944A021092E7
:101ED00022031092210310927003109292030E9429
:101EE000BA0282EC91E09093FB028093FA0283ECB9
:101EF00091E09093FF028093FE0260E880E00E94F0
:101F00000E046AE070E080E090E00E94390460E036
:101F100070E08AE794E40E947A0680E498E7ADE7EF
:101F2000B1E08093BE059093BF05A093C005B09328
:101F3000C10560E070E080E792E40E947A0610E05C
:101F400040E050E170E060E0812F0E948E051F5F4D
:101F50001730B1F7E091A303F091A40382E08083EE
:101F6000E0919F03F091A0031082E091A103F09112
:101F7000A20380E180831092AB03E091A703F0916C
:101F8000A80386E08083E091A503F091A6038081F9
:101F900080618083E091A503F091A6038081886031
:101FA0008083E091A503F091A603808180688083FF
:101FB000E091A503F091A60380818F7D808381E06D
:101FC00091E00E94500880E480937C0080917A0028
:101FD000806480937A0080917A0086FDFCCF6091C6
:101FE000780070917900072E000C880B990B611511
:101FF00071058105910511F00E9440178091AC0593
:10200000882321F086EC90E00E94500889EA90E055
:102010000E94500860E08AE00E944A0290E080E05E
:102020000E946E08CE0143960E94030189E0FE01E2
:102030007396DE011A9601900D928A95E1F79E0142
:10204000245F3F4F3F8F2E8F7DEFE72E71E0F72EFD
:10205000E4E2CE2EE1E0DE2E00E011E0312CAE8D88
:10206000BF8D9D90BF8FAE8F97FC7EC0F701A08083
:10207000B180628173816A197B09072E000C880B7D
:10208000990B0E94F4182B013C01692D990C770BD8
:10209000880B990B0E94F4182AE037ED43E25CE3C9
:1020A0000E94A9199B01AC01C301B2010E94A919A8
:1020B0002B013C01B501BB0C880B990B0E94F41855
:1020C0009B01AC01C301B2010E94D9170E94BC1848
:1020D000072E000C880B990B0E94F418D8016D9301
:1020E0007D938D939C9313970E946B042B013C016D
:1020F000B4EF4B0EB1E05B1E611C711C0E946B04BF
:102100004B015C01F80160817181828193810E94A1
:10211000C318AB0170E060E0832D84149504A6041D
:10212000B704B0F40E948E056AE070E080E090E0B1
:102130000E94390440E050E170E060E0832D0E948D
:102140008E0562E370E080E090E00E943904D6CF13
:102150000E948E05F80180819181A281B381F601F0
:1021600080839183A283B38333940C5F1F4FF4E089
:10217000CF0ED11C24E0E20EF11C37E033126FCFFA
:1021800084E890E00E945008AE01465F5F4F5D8F8B
:102190004C8F83E993E00E94D80418161906DCF4EA
:1021A00083E993E00E94B60490918E028A3011F088
:1021B0008D3041F491110E94B7091092890210925A
:1021C0008E0209C0911187C0809388029F5F90930F
:1021D0008E02953081F38091A8059091A90518167B
:1021E00019060CF081C00E946B04009190021091BE
:1021F0009102209192023091930260177107820739
:10220000930708F471C0CE0101960E9403010E9459
:102210006B0429813A81620F731F811D911D6093A8
:1022200090027093910280939202909393026E01B8
:1022300053E0C50ED11C64E2862E61E0962E0DEFB0
:1022400011E0D601BD906D01F801E080F18062815E
:1022500073816E197F09072E000C880B990B0E9461
:10226000F4182B013C016B2DBB0C770B880B990BE1
:102270000E94F4182AE037ED43E25CE30E94A919BA
:102280009B01AC01C301B2010E94A9192B013C01C1
:10229000B701FF0C880B990B0E94F4189B01AC014D
:1022A000C301B2010E94D9170E94BC18072E000C6E
:1022B000880B990B0E94F418D4016D937D938D9334
:1022C0009D934D010C5F1F4FEC8DFD8DCE16DF06EB
:1022D00009F0B7CF0DC0E92FF0E0E757FD4FDF0160
:1022E00011978C93108272CF80918F02811190C0D0
:1022F0000E946B040091CC021091CD022091CE027D
:102300003091CF02601B710B820B930B6A30710509
:102310008105910508F477C40E946B046093CC0298
:102320007093CD028093CE029093CF020E94F90267
:102330006B017C018091C8029091C902A091CA02F0
:10234000B091CB02A7019601281B390B4A0B5B0BFE
:10235000CA01B9010E94F21820E030E04AE754E4D3
:102360000E944A186EA77FA788AB99ABC092C8029B
:10237000D092C902E092CA02F092CB024AE952E03E
:102380005F8F4E8F1A0180E091E09DA38CA3A4E2A1
:10239000B1E0BFA3AEA3F12C10E000E0AEA1BFA15D
:1023A0002D913D914D915D91BFA3AEA328A339A37B
:1023B0004AA35BA3ACA1BDA12D913D914D915D912F
:1023C000BDA3ACA32EAB3FAB48AF59AF68A179A179
:1023D0008AA19BA10E94D8172B013C0120E030E08C
:1023E000A9010E94A41918160CF01BC120E030E0CE
:1023F00040E85FE3C301B2010E94A41918160CF46F
:1024000054C4D1011D921D921D921C921397F9C1C3
:102410008091A8059091A905181619060CF468CFAB
:102420000E946B04009190021091910220919202FF
:1024300030919302601771078207930708F458CF11
:1024400010E000E00E94F11622E030E040E050E0B1
:102450000E946F17613071058105910509F047C031
:10246000023011052CF0C8010597029708F062C0F0
:102470005801AA0CBB1CAA0CBB1CF501E350FE4F73
:10248000C080D180428053804C145D0428F0942D8C
:10249000852D2601C92ED82EFFEFCF1ADF0AF12C89
:1024A000E12C712C612C4C145D046E047F048CF4BF
:1024B000C418D508E608F70841F00E94F116A701F4
:1024C00096010E946F176B017C014C0C5D1C6E1C09
:1024D0007F1C95012C5D3E4F5901C301B2010E9442
:1024E000F418D5016D937D938D939C9313970F5F93
:1024F0001F4F0730110509F0A5CF0E946B046B0137
:102500007C010E94F11624EC39E040E050E00E948A
:102510006F176C507E4F8F4F9F4FC60ED71EE81E11
:10252000F91EC0929002D0929102E0929202F09233
:102530009302DECE03301105D1F60E94F11622E09F
:1025400030E040E050E00E946F1761307105810576
:10255000910509F03FC00E94F1162EE430E040E002
:1025600050E00E946F176D577E4F8F4F9F4F0E9414
:10257000F41860933001709331018093320190938D
:10258000330120E030E841EC53E40E94D81720E00A
:1025900030E04CE952E40E944A189B01AC0160E033
:1025A00070E080E89FE30E94D81720E030E040EA26
:1025B00052E40E94A91920E030E04BE853E40E9465
:1025C000D91760933401709335018093360190934D
:1025D00037018DCF0E94F1162EE430E040E050E04C
:1025E0000E946F176D577E4F8F4F9F4F0E94F418B8
:1025F00060933001709331018093320190933301E5
:1026000020E030E847E853E40E94D81720E030E0AB
:1026100042E453E40E944A1820E030E049E453E4E5
:10262000C8CF20E030E040E85FEBC301B2010E9478
:10263000451887FFE6CE20E030E040E85FEB68A178
:1026400079A18AA19BA10E944518882309F4D9CEBB
:1026500060E08AE00E944A0220E030E0A901C30164
:10266000B2010E944518881F8827881FB1E0B8274B
:10267000BAA7F801EE0FFF1FEE0FFF1FE35CFD4F3F
:10268000C080D180E280F380F10180809180A280BF
:10269000B380A5019401C501B4010E94A9196AABD8
:1026A0007BAB8CAB9DABA7019601C701B6010E9425
:1026B000D9179B01AC016AA97BA98CA99DA90E948D
:1026C0004A1877FA709477F87094A30192010E94E7
:1026D000A419181624F4F7FAF094F7F8F094A70167
:1026E00096016EA57FA588A999A90E94A91920E045
:1026F00030E04AE754E40E944A189B01AC01FAA575
:10270000C501B401FF2309F449C10E94D917D101C1
:102710006D937D938D939C931397F801EE0FFF1F9C
:10272000EE0FFF1FE75EFD4FC080D180E280F38097
:10273000A7019601D1016D917D918D919C910E948F
:10274000A41918162CF4F101C082D182E282F3821E
:10275000F7FAF094F7F8F094A7019601D1016D9182
:102760007D918D919C910E94451887FF05C0F101D4
:10277000C082D182E282F382D1012D913D914D91AF
:102780005C916EA57FA588A999A90E94A91920E04E
:1027900030E04AE754E40E944A186B017C0120E0D3
:1027A00030E0A9010E94A419A701960118160CF0A7
:1027B0005058C301B2010E94A419ECA1FDA13497A5
:1027C0005F0118160CF0F2C0A70196016EA97FA94F
:1027D00088AD99AD0E94D917D5016D937D938D93E6
:1027E0009C931397F50160817181828193810E948E
:1027F000C318AB0170E060E0802F0E948E05FF24BB
:10280000F3940F5F1F4FB4E02B0E311C07301105FE
:1028100009F0C4CDFF2009F4D2C00E946B0460937C
:102820009402709395028093960290939702009180
:10283000C2021091C302E090C002F090C102B80140
:102840006E197F09072E000C880B990B0E94F41853
:102850004B015C018092400190924101A0924201A3
:10286000B09243010E0D1F1DB801110F880B990B7B
:102870000E94F4186B017C01C0924401D092450182
:10288000E0924601F092470120E030E0A901C50145
:10289000B4010E9445188823C1F06091BE02709176
:1028A000BF02072E000C880B990B0E94F4189B01A5
:1028B000AC01C501B4010E94D81760934001709328
:1028C0004101809342019093430120E030E0A9014F
:1028D000C701B6010E9445188823B1F06091BE027D
:1028E0007091BF02072E000C880B990B0E94F41800
:1028F000A70196010E94D917609344017093450186
:10290000809346019093470180919802909199029B
:1029100020E4222E21E0322E25E332E03DA32CA339
:102920000CE110E09C01990F440B550B2AA73BA723
:102930004CA75DA7D1014D905D906D907D901D01DC
:10294000AE8DBF8D5C962D913D914D915C915F97C1
:1029500028A339A34AA35BA3C301B2010E94D817DD
:102960006B017C0120E030E0A9010E94A419181637
:102970000CF045C020E030E040E85FE3C701B6015D
:102980000E94A41918160CF444C0AE8DBF8D5C963D
:102990004D925D926D927C925F97B8C00E94D8175D
:1029A000F1016083718382839383B7CE28A139A11B
:1029B0004AA15BA1208331834283538313CF0E94BA
:1029C0006B0400919402109195022091960230912F
:1029D0009702601B710B820B930B60377741810567
:1029E000910508F424CF10E040E050E170E060E091
:1029F000812F0E948E051F5F1730B1F718CF20E09E
:102A000030E040E85FEBC701B6010E94451887FF40
:102A1000BCCF20E030E040E85FEBC301B2010E9490
:102A20004518882309F4B1CFF801E35CFD4F80809D
:102A30009180A280B38028A139A14AA15BA1C301E2
:102A4000B2010E94451887FF1BC020E030E0A901B9
:102A500068A179A18AA19BA10E94A41987FD05C044
:102A6000B7FAB094B7F8B0940BC020E030E0A901F9
:102A700068A179A18AA19BA10E94451887FDF0CF8A
:102A8000A50194016EA57FA588A999A90E94A919FD
:102A900020E030E04AE754E40E944A184B015C0110
:102AA00020E030E0A9010E94A41918160CF4D5C04A
:102AB000A501940150582EA33FA348A759A720E091
:102AC00030E0A901C701B6010E94A419181624F02C
:102AD000F7FAF094F7F8F094A70196016EA17FA1A0
:102AE00088A599A50E94451887FFBCC0A50194013F
:102AF00068A179A18AA19BA10E94D917AE8DBF8D33
:102B00005C966D937D938D939C935F97EE8DFF8D77
:102B1000C48CD58CE68CF78C20E030E0A901C7018D
:102B2000B6010E94A41918160CF0A3C06AA57BA5D3
:102B30008CA59DA50E94F418A70196010E94D917A3
:102B4000AE8DBF8D5C966D937D938D939C935F97B7
:102B5000ACA1BDA1CD90DD90ED90FD90BDA3ACA347
:102B6000A7019601EE8DFF8D648D758D868D978DF5
:102B70000E94A419181644F4AE8DBF8D5C96CD92B8
:102B8000DD92ED92FC925F97F7FAF094F7F8F094EB
:102B9000A7019601EE8DFF8D648D758D868D978DC5
:102BA0000E94451887FF08C0AE8DBF8D5C96CD9200
:102BB000DD92ED92FC925F97EE8DFF8D3496FF8F44
:102BC000EE8F0C5F1F4F0432110509F0B3CE6091F8
:102BD000B6027091B7028091B8029091B9020E943A
:102BE000BC1885EB95E00E94D5056091BA02709102
:102BF000BB028091BC029091BD020E94BC188FEA7A
:102C000095E00E94D5050E946B040091C4021091CA
:102C1000C5022091C6023091C702601B710B820B66
:102C2000930B603177428105910550F00E946B044F
:102C30006093C4027093C5028093C6029093C7024A
:102C400020E030E0232B09F4A4CA0E94E404882386
:102C500009F49FCA0E9400009CCA8EA29FA2A8A647
:102C6000B9A62DCFEE8DFF8D448E558E668E778E54
:102C70004DCF20E030E0A901C701B6010E94451800
:102C800087FF66CF6AA57BA58CA59DA50E94F41839
:102C90009B01AC01C701B6010E94D817EE8DFF8DD4
:102CA000648F758F868F978F53CF20E030E040E898
:102CB0005FEB68A179A18AA19BA10E944518882396
:102CC00009F49FCB60E08AE00E944A0220E030E0F5
:102CD000A901C301B2010E944518881F8827881FD7
:102CE00031E038273AA7F801EE0FFF1FEE0FFF1F64
:102CF000E35CFD4FC080D180E280F380D1018D90F4
:102D00009D90AD90BC90A5019401C501B4010E94B5
:102D1000A9196AAB7BAB8CAB9DABA7019601C70130
:102D2000B6010E94D9179B01AC016AA97BA98CA9A5
:102D30009DA90E944A18C9CC8091AD059091AE051D
:102D4000009711F00C94B21A08958F929F92AF924F
:102D5000BF92CF92DF92EF92FF92CF93DF93EC017D
:102D6000688179818A819B81611571058105910551
:102D700021F464E279ED8BE597E02DE133EF41E05A
:102D800050E00E946F1749015A019B01AC01A7EA6C
:102D9000B1E40E948E176B017C01ACEEB4EFA5018B
:102DA00094010E949C17C60ED71EE81EF91EF7FE5E
:102DB00006C081E0C81AD108E10880E8F80AC88294
:102DC000D982EA82FB82C701B6019F77DF91CF915A
:102DD000FF90EF90DF90CF90BF90AF909F908F903B
:102DE00008958F929F92AF92BF92CF92DF92EF920F
:102DF000FF92609148017091490180914A01909140
:102E00004B01611571058105910521F464E279EDAD
:102E10008BE597E02DE133EF41E050E00E946F1722
:102E200049015A019B01AC01A7EAB1E40E948E1747
:102E30006B017C01ACEEB4EFA50194010E949C17DC
:102E4000C60ED71EE81EF91EF7FE06C081E0C81A9E
:102E5000D108E10880E8F80AC0924801D0924901FF
:102E6000E0924A01F0924B01C701B6019F77FF90B3
:102E7000EF90DF90CF90BF90AF909F908F9008958C
:102E8000609348017093490180934A0190934B01EC
:102E90000895FC0188279927E89421912032E9F3CD
:102EA000293010F02E30C8F32B3241F02D3239F496
:102EB000689404C00E946717820F911D21912053CE
:102EC0002A30C0F31EF4909581959F4F08957AE0C3
:102ED000979F902D879F802D910D11240895052E89
:102EE00097FB1EF400940E94861757FD07D00E949E
:102EF000A11707FC03D04EF40C948617509540950B
:102F0000309521953F4F4F4F5F4F08959095809595
:102F1000709561957F4F8F4F9F4F08950E94C31703
:102F2000A59F900DB49F900DA49F800D911D11241D
:102F30000895B7FF0C948E170E948E17821B930B77
:102F40000895A1E21A2EAA1BBB1BFD010DC0AA1FEA
:102F5000BB1FEE1FFF1FA217B307E407F50720F002
:102F6000A21BB30BE40BF50B661F771F881F991F7D
:102F70001A9469F760957095809590959B01AC01C6
:102F8000BD01CF010895A29FB001B39FC001A39FCF
:102F9000700D811D1124911DB29F700D811D112492
:102FA000911D0895EE0FFF1F0590F491E02D0994F7
:102FB0005058BB27AA270E94F0170C946A190E9448
:102FC0005C1938F00E94631920F039F49F3F19F41E
:102FD00026F40C9459190EF4E095E7FB0C94531960
:102FE000E92F0E947B1958F3BA1762077307840709
:102FF000950720F079F4A6F50C949D190EF4E09550
:103000000B2EBA2FA02D0B01B90190010C01CA01A2
:10301000A0011124FF27591B99F0593F50F4503E4D
:1030200068F11A16F040A22F232F342F4427585F3F
:10303000F3CF469537952795A795F0405395C9F757
:103040007EF41F16BA0B620B730B840BBAF091500F
:10305000A1F0FF0FBB1F661F771F881FC2F70EC0AE
:10306000BA0F621F731F841F48F487957795679581
:10307000B795F7959E3F08F0B0CF9395880F08F06D
:103080009927EE0F9795879508950E942F1908F4B8
:1030900081E008950E945E180C946A190E946319D9
:1030A00058F00E945C1940F029F45F3F29F00C941D
:1030B000531951110C949E190C9459190E947B19A3
:1030C00068F39923B1F3552391F3951B550BBB2757
:1030D000AA2762177307840738F09F5F5F4F220F9C
:1030E000331F441FAA1FA9F335D00E2E3AF0E0E893
:1030F00032D091505040E695001CCAF72BD0FE2FDD
:1031000029D0660F771F881FBB1F26173707480770
:10311000AB07B0E809F0BB0B802DBF01FF27935828
:103120005F4F3AF09E3F510578F00C9453190C9480
:103130009E195F3FE4F3983ED4F3869577956795A3
:10314000B795F7959F5FC9F7880F911D969587955D
:1031500097F90895E1E0660F771F881FBB1F62177C
:1031600073078407BA0720F0621B730B840BBA0B3A
:10317000EE1F88F7E09508950E94C3186894B11176
:103180000C949E1908950E94831988F09F5798F017
:10319000B92F9927B751B0F0E1F0660F771F881F5C
:1031A000991F1AF0BA95C9F714C0B13091F00E9476
:1031B0009D19B1E008950C949D19672F782F8827E9
:1031C000B85F39F0B93FCCF3869577956795B3959D
:1031D000D9F73EF490958095709561957F4F8F4F0C
:1031E0009F4F0895E89409C097FB3EF49095809511
:1031F000709561957F4F8F4F9F4F9923A9F0F92FBD
:1032000096E9BB279395F695879577956795B7953A
:10321000F111F8CFFAF4BB0F11F460FF1BC06F5F20
:103220007F4F8F4F9F4F16C0882311F096E911C032
:10323000772321F09EE8872F762F05C0662371F053
:1032400096E8862F70E060E02AF09A95660F771F67
:10325000881FDAF7880F9695879597F90895990F43
:103260000008550FAA0BE0E8FEEF16161706E80750
:10327000F907C0F012161306E407F50798F0621B71
:10328000730B840B950B39F40A2661F0232B242B46
:10329000252B21F408950A2609F4A140A6958FEF65
:1032A000811D811D089597F99F6780E870E060E0B7
:1032B00008959FEF80EC089500240A9416161706CF
:1032C00018060906089500240A9412161306140617
:1032D00005060895092E0394000C11F4882352F07A
:1032E000BB0F40F4BF2B11F460FF04C06F5F7F4F32
:1032F0008F4F9F4F089557FD9058440F551F59F019
:103300005F3F71F04795880F97FB991F61F09F3FD2
:1033100079F087950895121613061406551FF2CFFB
:103320004695F1DF08C0161617061806991FF1CF4B
:1033300086957105610508940895E894BB27662772
:103340007727CB0197F908950E942F1908F48FEF82
:1033500008950E94BC190C946A190E945C1938F0F7
:103360000E94631920F0952311F00C9453190C94CA
:10337000591911240C949E190E947B1970F3959F82
:10338000C1F3950F50E0551F629FF001729FBB275C
:10339000F00DB11D639FAA27F00DB11DAA1F649FF8
:1033A0006627B00DA11D661F829F2227B00DA11DAB
:1033B000621F739FB00DA11D621F839FA00D611D31
:1033C000221F749F3327A00D611D231F849F600D52
:1033D000211D822F762F6A2F11249F5750409AF07B
:1033E000F1F088234AF0EE0FFF1FBB1F661F771F07
:1033F000881F91505040A9F79E3F510580F00C94D2
:1034000053190C949E195F3FE4F3983ED4F38695CC
:1034100077956795B795F795E7959F5FC1F7FE2B71
:10342000880F911D9695879597F908950F931F938F
:10343000CF93DF938230910510F482E090E0E09129
:10344000C405F091C50530E020E0B0E0A0E0309781
:1034500099F42115310509F44AC0281B390B243091
:103460003105D8F58A819B816115710589F1FB01D0
:1034700093838283FE0111C04081518102811381B7
:1034800048175907E0F04817590799F4109761F069
:1034900012960C93129713961C933296CF01DF91DC
:1034A000CF911F910F9108950093C4051093C50506
:1034B000F4CF2115310551F04217530738F0A90117
:1034C000DB019A01BD01DF01F801C1CFEF01F9CFA6
:1034D0009093C5058093C405CDCFFE01E20FF31F85
:1034E000819391932250310939832883D7CF20913A
:1034F000C2053091C305232B41F420914E01309138
:103500004F013093C3052093C20520914C013091A7
:103510004D012115310541F42DB73EB740915001C1
:1035200050915101241B350BE091C205F091C30568
:10353000E217F307A0F42E1B3F0B2817390778F08A
:10354000AC014E5F5F4F2417350748F04E0F5F1FE9
:103550005093C3054093C205819391939FCFF0E0B0
:10356000E0E09CCFCF93DF930097E9F0FC01329726
:1035700013821282A091C405B091C505ED0130E01F
:1035800020E01097A1F420813181820F931F2091B8
:10359000C2053091C3052817390709F061C0F093BF
:1035A000C305E093C205DF91CF910895EA01CE17DC
:1035B000DF07E8F54A815B819E0141155105B1F7AE
:1035C000E901FB83EA8349915991C40FD51FEC1798
:1035D000FD0761F4808191810296840F951FE901B6
:1035E00099838883828193819B838A83F0E0E0E0E2
:1035F00012968D919C9113970097B9F52D913C915E
:103600001197CD010296820F931F2091C205309130
:10361000C3052817390739F6309751F51092C505BB
:103620001092C405B093C305A093C205BCCFD38349
:10363000C28340815181840F951FC817D90761F457
:103640004E5F5F4F88819981480F591F5183408396
:103650008A819B81938382832115310509F0B0CF44
:10366000F093C505E093C4059ECFFD01DC01C0CFFA
:1036700013821282D7CF10E0C9EBD0E004C0FE0164
:103680000E94D2172196CA3BD107C9F7F894FFCF01
:103690000000784300000C4400000C430080ED4320
:1036A0000000874300007A43000091430000344348
:1036B000000034430000784300000C4400000C4339
:1036C0000080ED430000874300007A4300009143EF
:1036D0000000000000000000010000000000C6051E
:1036E0008000E803320A0000002828D007322D5A53
:1036F00028282828BC02322D5A28002828BC02324B
:103700002D5A00002828BC02322D5A00282828BC37
:1037100002322D5A282828289001322D5A000028DC
:10372000289001322D5A28282828D00732003C281A
:10373000282828E80332003C00002828B80B30284D
:1037400000232D3C3BDC0530281464005050B80B9E
:1037500000282864005050DC05303C64282864644C
:10376000DC0530281E2D230000DC0522220A0E6411
:103770000000DC05303C14232D3C3BB80B641432B4
:1037800028283C64DC05300F00000000009A017816
:10379000001402B20078003601D1010F011601DFDA
:1037A0000154018700960068010000FA430000C838
:1037B000430000FA430000164500001645000016BD
:1037C000440000164400007F4300007F430000AF28
:1037D00043000096430000F0430000E1440000E194
:1037E000440000FA430000FA430000484400004847
:1037F00044000000001B02EE01A404C401E701D450
:1038000001C501000000001A057704A7046705D868
:0838100004B604CA040D0A000D
:00000001FF
